:060000000A128A11902F84
:100F200083010A128A11A82F962F962FFF30F007FF
:100F30000318F10AFF30F107FF307106031DA22FDD
:100F4000FF307006031DA52FA62F962FA72F080090
:100F5000F3018316031387010F30831203139700E5
:100F6000643083160313920032308312031395000A
:100F70001215BA2FF30164307302031CC02FC12F66
:100F8000C32FDB2FDB2F7308831203139500103060
:100F9000F0002730F1000A128A1194270A128A11F0
:100FA0000130F2007208F30764307302031CD92F7A
:100FB000DA2FC32FDB2F6430F2007208F300F3083E
:100FC000031DE32FE42FE62FBA2FBA2F73088312E5
:100FD000031395001030F0002730F1000A128A1137
:100FE00094270A128A110130F302F308031DF92F26
:100FF000FA2FE62FBA2FBA2FBA2F0A128A11002819
:00000001FF
